S010000062696B655F706F762E73726563C5
S11300000C9494030C94B1030C94B1030C94B103B9
S11300100C94B1030C94B1030C94B1030C94B1038C
S11300200C94B1030C94B1030C94B1030C94B90473
S11300300C94B1030C94B1030C9461040C94B103BB
S11300400C94B1030C94B1030C942C050C945A0534
S11300500C94B1030C94B1030C94B1030C94B1034C
S11300600C94B1030C94B1030000000000000000E4
S1130070000000000000000000000000000000007C
S1130080000000000000000000000000000000006C
S1130090000000000000000000000000000000005C
S11300A0000000000000000000000000000000004C
S11302A00000000000000000FFFFFFFFFFFFFFFF52
S11302B0FFFFFFFFFFFFFFFFFFFFFFFFFFFFFFFF4A
S11302C0FFFFFFFFFFFFFFFFFFFFFFFFFFFFFFFF3A
S11302D0FFFFFFFFFFFFFFFFFFFFFFFFFFFFFFFF2A
S11302E0FFFFFFFFFFFFFFFFFFFFFFFFFFFFFFFF1A
S11304E0FFFFFFFFFFFFFFFF000000000000000010
S11304F000000000000000000000000000000000F8
S113050000000000000000000000000000000000E7
S113051000000000000000000000000000000000D7
S113052000000000000000000000000000000000C7
S1130720000000000000000011241FBECFEFD8E03D
S1130730DEBFCDBF11E0A0E0B1E0ECE5FBE002C01C
S113074005900D92A430B107D9F721E0A4E0B1E0FF
S113075001C01D92AC34B207E1F70E94B3030C94BC
S1130760AC050C94000084B5826084BD85B58260BC
S113077085BD8EE187BDEEE6F0E0808182608083F6
S1130780E4E6F0E080818F7D808321980E94F70465
S11307908FEF0E94EF044098419A42980E94CB0444
S11307A0109285001092840087B187B978942FE75E
S11307B084E89EE1215080409040E1F700C00000B1
S11307C0C0E0D0E004C0D0E002C0C0E0D0E080913E
S11307D006018823E1F388B1887F88B9D130D1F04C
S11307E020F0D23009F042C02AC0409A5E9880912D
S11307F0050190E09C01220F331F820F931F880F85
S1130800991F880F991F880F991F88599F4F0E941D
S1130810CD0453C0429A5E988091050190E09C01FA
S1130820220F331F820F931F880F991F880F991F60
S1130830880F991F88539C4F0E94CD043EC0419A53
S11308405E988091050190E09C01220F331F820F76
S1130850931F880F991F880F991F880F991F88531A
S11308609C4F0E94CD041092060106C0109206010E
S1130870DF5FD33009F0ABCFCF5F809102012C2F23
S113088030E0992787FD9095281739070CF49BCF02
S1130890809105018F5F809305018091050190E0AF
S11308A084970CF492CF809104018F5F80930401AC
S11308B010920501C0E0D0E08ACF10920601DF5FFC
S11308C086CF1F920F920FB60F9211242F933F934E
S11308D05F936F937F938F939F93AF93BF9383B1F2
S11308E082708093000180910001882381F18091BE
S11308F0010181112CC080910401882381F0209191
S11309000501909102018BEA289F812D112486957F
S11309108695890F80930201109204010FC02091E3
S113092002013091050184E290E0831B910966E0A5
S113093070E00E948405261B20930201809102012D
S113094088231CF481E080930201109205018091B8
S1130950000180930101BF91AF919F918F917F918D
S11309606F915F913F912F910F900FBE0F901F9049
S113097018951F920F920FB60F9211248F935E9ABF
S11309805D9A81E0809306015D988F910F900FBE70
S11309900F901F9018955E980895BC01605F7F4F7B
S11309A0FC01A49102963196E49140E1E49FF001A8
S11309B011244F2FAEBD0DB407FEFDCF242F30E020
S11309C0A9014F7055274EBD0DB407FEFDCFEEBDF6
S11309D00DB407FEFDCF6817790711F7089598E164
S11309E08EBD0DB407FEFDCF9150D1F70895559AF1
S11309F0569A549A579A5D985E9A5C985F983A9A78
S1130A00399A389A429841984098E0E8F0E0808119
S1130A108083A1E8B0E08C9188608C938FE0809310
S1130A2089008BEF80938800E4E6F0E08081877F83
S1130A3080838C9181608C93AFE6B0E08C9182606E
S1130A408C93239A259A229A80818B7F808381E0DC
S1130A508DBD80E58CBD08951F920F920FB60F9245
S1130A6011242F938F939F93EF93FF938091C00052
S1130A702091C6008871E0910901EF5FEF719091B8
S1130A800801E91739F0E0930901F0E0E45FFE4F53
S1130A90208301C082E090910701892B8093070194
S1130AA0FF91EF919F918F912F910F900FBE0F9017
S1130AB01F9018951F920F920FB60F9211248F93C7
S1130AC09F93EF93FF9390910B0180910A019817E4
S1130AD069F0E0910A01EF5FEF71E0930A01F0E041
S1130AE0E45DFE4F80818093C60005C0E1ECF0E038
S1130AF080818F7D8083FF91EF919F918F910F90E3
S1130B000FBE0F901F90189597FB072E16F40094B4
S1130B1007D077FD09D00E94980507FC05D03EF464
S1130B20909581959F4F0895709561957F4F089595
S1130B30AA1BBB1B51E107C0AA1FBB1FA617B707FF
S1130B4010F0A61BB70B881F991F5A95A9F780951B
S10F0B509095BC01CD010895F894FFCFEE
S1070B5C0101460049
S9030000FC
