
Simple LED 328p.elf:     file format elf32-avr

Sections:
Idx Name          Size      VMA       LMA       File off  Algn
  0 .data         00000000  00800100  000000b2  00000126  2**0
                  CONTENTS, ALLOC, LOAD, DATA
  1 .text         000000b2  00000000  00000000  00000074  2**1
                  CONTENTS, ALLOC, LOAD, READONLY, CODE
  2 .comment      00000030  00000000  00000000  00000126  2**0
                  CONTENTS, READONLY
  3 .debug_aranges 00000028  00000000  00000000  00000156  2**0
                  CONTENTS, READONLY, DEBUGGING
  4 .debug_info   00000177  00000000  00000000  0000017e  2**0
                  CONTENTS, READONLY, DEBUGGING
  5 .debug_abbrev 00000115  00000000  00000000  000002f5  2**0
                  CONTENTS, READONLY, DEBUGGING
  6 .debug_line   0000015f  00000000  00000000  0000040a  2**0
                  CONTENTS, READONLY, DEBUGGING
  7 .debug_frame  00000034  00000000  00000000  0000056c  2**2
                  CONTENTS, READONLY, DEBUGGING
  8 .debug_str    000001a6  00000000  00000000  000005a0  2**0
                  CONTENTS, READONLY, DEBUGGING
  9 .debug_loc    0000006e  00000000  00000000  00000746  2**0
                  CONTENTS, READONLY, DEBUGGING
 10 .debug_ranges 00000018  00000000  00000000  000007b4  2**0
                  CONTENTS, READONLY, DEBUGGING

Disassembly of section .text:

00000000 <__vectors>:
   0:	0c 94 34 00 	jmp	0x68	; 0x68 <__ctors_end>
   4:	0c 94 3e 00 	jmp	0x7c	; 0x7c <__bad_interrupt>
   8:	0c 94 3e 00 	jmp	0x7c	; 0x7c <__bad_interrupt>
   c:	0c 94 3e 00 	jmp	0x7c	; 0x7c <__bad_interrupt>
  10:	0c 94 3e 00 	jmp	0x7c	; 0x7c <__bad_interrupt>
  14:	0c 94 3e 00 	jmp	0x7c	; 0x7c <__bad_interrupt>
  18:	0c 94 3e 00 	jmp	0x7c	; 0x7c <__bad_interrupt>
  1c:	0c 94 3e 00 	jmp	0x7c	; 0x7c <__bad_interrupt>
  20:	0c 94 3e 00 	jmp	0x7c	; 0x7c <__bad_interrupt>
  24:	0c 94 3e 00 	jmp	0x7c	; 0x7c <__bad_interrupt>
  28:	0c 94 3e 00 	jmp	0x7c	; 0x7c <__bad_interrupt>
  2c:	0c 94 3e 00 	jmp	0x7c	; 0x7c <__bad_interrupt>
  30:	0c 94 3e 00 	jmp	0x7c	; 0x7c <__bad_interrupt>
  34:	0c 94 3e 00 	jmp	0x7c	; 0x7c <__bad_interrupt>
  38:	0c 94 3e 00 	jmp	0x7c	; 0x7c <__bad_interrupt>
  3c:	0c 94 3e 00 	jmp	0x7c	; 0x7c <__bad_interrupt>
  40:	0c 94 3e 00 	jmp	0x7c	; 0x7c <__bad_interrupt>
  44:	0c 94 3e 00 	jmp	0x7c	; 0x7c <__bad_interrupt>
  48:	0c 94 3e 00 	jmp	0x7c	; 0x7c <__bad_interrupt>
  4c:	0c 94 3e 00 	jmp	0x7c	; 0x7c <__bad_interrupt>
  50:	0c 94 3e 00 	jmp	0x7c	; 0x7c <__bad_interrupt>
  54:	0c 94 3e 00 	jmp	0x7c	; 0x7c <__bad_interrupt>
  58:	0c 94 3e 00 	jmp	0x7c	; 0x7c <__bad_interrupt>
  5c:	0c 94 3e 00 	jmp	0x7c	; 0x7c <__bad_interrupt>
  60:	0c 94 3e 00 	jmp	0x7c	; 0x7c <__bad_interrupt>
  64:	0c 94 3e 00 	jmp	0x7c	; 0x7c <__bad_interrupt>

00000068 <__ctors_end>:
  68:	11 24       	eor	r1, r1
  6a:	1f be       	out	0x3f, r1	; 63
  6c:	cf ef       	ldi	r28, 0xFF	; 255
  6e:	d8 e0       	ldi	r29, 0x08	; 8
  70:	de bf       	out	0x3e, r29	; 62
  72:	cd bf       	out	0x3d, r28	; 61
  74:	0e 94 4b 00 	call	0x96	; 0x96 <main>
  78:	0c 94 57 00 	jmp	0xae	; 0xae <_exit>

0000007c <__bad_interrupt>:
  7c:	0c 94 00 00 	jmp	0	; 0x0 <__vectors>

00000080 <long_delay>:
		}
	return 0;
}

void long_delay(uint16_t ms) {
    for (; ms>0; ms--) _delay_ms(1);
  80:	00 97       	sbiw	r24, 0x00	; 0
  82:	41 f0       	breq	.+16     	; 0x94 <long_delay+0x14>
	#else
		//round up by default
		__ticks_dc = (uint32_t)(ceil(fabs(__tmp)));
	#endif

	__builtin_avr_delay_cycles(__ticks_dc);
  84:	e7 e8       	ldi	r30, 0x87	; 135
  86:	f3 e1       	ldi	r31, 0x13	; 19
  88:	31 97       	sbiw	r30, 0x01	; 1
  8a:	f1 f7       	brne	.-4      	; 0x88 <long_delay+0x8>
  8c:	00 c0       	rjmp	.+0      	; 0x8e <long_delay+0xe>
  8e:	00 00       	nop
  90:	01 97       	sbiw	r24, 0x01	; 1
  92:	f6 cf       	rjmp	.-20     	; 0x80 <long_delay>
  94:	08 95       	ret

00000096 <main>:

int main(void)
{
	//_delay_ms(1000); //Programmstartverzögerung
	
	DDRD |= (1 << PIND6);// | (1 << PD2);
  96:	56 9a       	sbi	0x0a, 6	; 10
	uint16_t z= 1000;
	//PORTD = (1 << PD3);
	
	while(1)
	{
		PORTD |= (1 << PIND6);
  98:	5e 9a       	sbi	0x0b, 6	; 11
		long_delay(z);
  9a:	88 ee       	ldi	r24, 0xE8	; 232
  9c:	93 e0       	ldi	r25, 0x03	; 3
  9e:	0e 94 40 00 	call	0x80	; 0x80 <long_delay>
		PORTD &= ~(1 << PIND6);
  a2:	5e 98       	cbi	0x0b, 6	; 11
		//PORTD = (1 << PD1);
		long_delay(z);
  a4:	88 ee       	ldi	r24, 0xE8	; 232
  a6:	93 e0       	ldi	r25, 0x03	; 3
  a8:	0e 94 40 00 	call	0x80	; 0x80 <long_delay>
  ac:	f5 cf       	rjmp	.-22     	; 0x98 <main+0x2>

000000ae <_exit>:
  ae:	f8 94       	cli

000000b0 <__stop_program>:
  b0:	ff cf       	rjmp	.-2      	; 0xb0 <__stop_program>
