:100000000C9434000C9451000C9451000C94510049
:100010000C9451000C9451000C9451000C9451001C
:100020000C9451000C9451000C9451000C9451000C
:100030000C9451000C9451000C9451000C945100FC
:100040000C9451000C9451000C9451000C945100EC
:100050000C9451000C9451000C9451000C945100DC
:100060000C9451000C94510011241FBECFEFD8E026
:10007000DEBFCDBF11E0A0E0B1E0E0EBF2E002C0F6
:1000800005900D92A434B107D9F711E0A4E4B1E0D2
:1000900001C01D92A938B107E1F70E9453000C94EA
:1000A00056010C940000FF920F931F938AB1806E4B
:1000B0008AB98BB1806E8BB98FE590E00E94EA001F
:1000C000789480E091E00E94350100E210E40F2E68
:1000D000F0E8FF2EF02D0E9403019C012275307084
:1000E0002115310531F02BB1203211F41BB801C0BC
:1000F0000BB99C01277430702115310531F02BB1FB
:10010000203411F41BB801C01BB9827490700097A1
:1001100011F38BB1803811F41BB8DDCFFBB8DBCF06
:100120001F920F920FB60F9211242F933F938F932C
:100130009F93EF93FF933091C0002091C600809170
:1001400066018F5F8F7190916701891751F0932F2E
:10015000987180936601E8E6F1E0E80FF11D2083D5
:1001600001C092E090938801FF91EF919F918F9150
:100170003F912F910F900FBE0F901F9018951F92D7
:100180000F920FB60F9211248F939F93EF93FF93CB
:100190009091440180914501981771F0809145013B
:1001A0008F5F8F7180934501E6E4F1E0E80FF11D68
:1001B00080818093C60005C0E1ECF0E080818F7DF6
:1001C0008083FF91EF919F918F910F900FBE0F90C1
:1001D0001F901895109244011092450110926601EB
:1001E00010926701992324F422E02093C0009F77A6
:1001F0009093C5008093C40088E98093C10086E095
:100200008093C200089590916601809167019817CC
:1002100091F0809167018F5F8F7180936701E8E6AD
:10022000F1E0E80FF11D808190918801392F20E0E5
:10023000280F311D02C020E031E0822F932F089556
:10024000209144012F5F2F71909145012917E1F30F
:10025000E6E4F1E0E20FF11D808320934401E1EC3C
:10026000F0E08081806280830895CF93DF93EC017A
:100270008881882331F021960E942001899188236A
:10028000D9F7DF91CF910895CF93DF93EC01FC0173
:100290008491882341F021960E942001FE0121963D
:1002A00084918823C9F7DF91CF910895F894FFCF07
:1002B00057656C636F6D6520746F204C4544204317
:1002C0006F6E74726F6C2E2E2E2E2E5479706520E8
:1002D000522C47206F72204220746F207475726E0A
:1002E00020636F6C6F72206F6E206F72206F666676
:0402F0002E2E2E0080
:00000001FF
