
LED Steuerung Seriell.elf:     file format elf32-avr

Sections:
Idx Name          Size      VMA       LMA       File off  Algn
  0 .data         00000044  00800100  000002b0  00000344  2**0
                  CONTENTS, ALLOC, LOAD, DATA
  1 .text         000002b0  00000000  00000000  00000094  2**1
                  CONTENTS, ALLOC, LOAD, READONLY, CODE
  2 .bss          00000045  00800144  00800144  00000388  2**0
                  ALLOC
  3 .stab         000006cc  00000000  00000000  00000388  2**2
                  CONTENTS, READONLY, DEBUGGING
  4 .stabstr      00000090  00000000  00000000  00000a54  2**0
                  CONTENTS, READONLY, DEBUGGING
  5 .debug_aranges 00000040  00000000  00000000  00000ae4  2**0
                  CONTENTS, READONLY, DEBUGGING
  6 .debug_pubnames 0000009b  00000000  00000000  00000b24  2**0
                  CONTENTS, READONLY, DEBUGGING
  7 .debug_info   00000374  00000000  00000000  00000bbf  2**0
                  CONTENTS, READONLY, DEBUGGING
  8 .debug_abbrev 00000183  00000000  00000000  00000f33  2**0
                  CONTENTS, READONLY, DEBUGGING
  9 .debug_line   00000456  00000000  00000000  000010b6  2**0
                  CONTENTS, READONLY, DEBUGGING
 10 .debug_frame  000000a0  00000000  00000000  0000150c  2**2
                  CONTENTS, READONLY, DEBUGGING
 11 .debug_str    000001d1  00000000  00000000  000015ac  2**0
                  CONTENTS, READONLY, DEBUGGING
 12 .debug_loc    00000222  00000000  00000000  0000177d  2**0
                  CONTENTS, READONLY, DEBUGGING
 13 .debug_pubtypes 00000049  00000000  00000000  0000199f  2**0
                  CONTENTS, READONLY, DEBUGGING
 14 .debug_ranges 00000020  00000000  00000000  000019e8  2**0
                  CONTENTS, READONLY, DEBUGGING

Disassembly of section .text:

00000000 <__vectors>:
   0:	0c 94 34 00 	jmp	0x68	; 0x68 <__ctors_end>
   4:	0c 94 51 00 	jmp	0xa2	; 0xa2 <__bad_interrupt>
   8:	0c 94 51 00 	jmp	0xa2	; 0xa2 <__bad_interrupt>
   c:	0c 94 51 00 	jmp	0xa2	; 0xa2 <__bad_interrupt>
  10:	0c 94 51 00 	jmp	0xa2	; 0xa2 <__bad_interrupt>
  14:	0c 94 51 00 	jmp	0xa2	; 0xa2 <__bad_interrupt>
  18:	0c 94 51 00 	jmp	0xa2	; 0xa2 <__bad_interrupt>
  1c:	0c 94 51 00 	jmp	0xa2	; 0xa2 <__bad_interrupt>
  20:	0c 94 51 00 	jmp	0xa2	; 0xa2 <__bad_interrupt>
  24:	0c 94 51 00 	jmp	0xa2	; 0xa2 <__bad_interrupt>
  28:	0c 94 51 00 	jmp	0xa2	; 0xa2 <__bad_interrupt>
  2c:	0c 94 51 00 	jmp	0xa2	; 0xa2 <__bad_interrupt>
  30:	0c 94 51 00 	jmp	0xa2	; 0xa2 <__bad_interrupt>
  34:	0c 94 51 00 	jmp	0xa2	; 0xa2 <__bad_interrupt>
  38:	0c 94 51 00 	jmp	0xa2	; 0xa2 <__bad_interrupt>
  3c:	0c 94 51 00 	jmp	0xa2	; 0xa2 <__bad_interrupt>
  40:	0c 94 51 00 	jmp	0xa2	; 0xa2 <__bad_interrupt>
  44:	0c 94 51 00 	jmp	0xa2	; 0xa2 <__bad_interrupt>
  48:	0c 94 51 00 	jmp	0xa2	; 0xa2 <__bad_interrupt>
  4c:	0c 94 51 00 	jmp	0xa2	; 0xa2 <__bad_interrupt>
  50:	0c 94 51 00 	jmp	0xa2	; 0xa2 <__bad_interrupt>
  54:	0c 94 51 00 	jmp	0xa2	; 0xa2 <__bad_interrupt>
  58:	0c 94 51 00 	jmp	0xa2	; 0xa2 <__bad_interrupt>
  5c:	0c 94 51 00 	jmp	0xa2	; 0xa2 <__bad_interrupt>
  60:	0c 94 51 00 	jmp	0xa2	; 0xa2 <__bad_interrupt>
  64:	0c 94 51 00 	jmp	0xa2	; 0xa2 <__bad_interrupt>

00000068 <__ctors_end>:
  68:	11 24       	eor	r1, r1
  6a:	1f be       	out	0x3f, r1	; 63
  6c:	cf ef       	ldi	r28, 0xFF	; 255
  6e:	d8 e0       	ldi	r29, 0x08	; 8
  70:	de bf       	out	0x3e, r29	; 62
  72:	cd bf       	out	0x3d, r28	; 61

00000074 <__do_copy_data>:
  74:	11 e0       	ldi	r17, 0x01	; 1
  76:	a0 e0       	ldi	r26, 0x00	; 0
  78:	b1 e0       	ldi	r27, 0x01	; 1
  7a:	e0 eb       	ldi	r30, 0xB0	; 176
  7c:	f2 e0       	ldi	r31, 0x02	; 2
  7e:	02 c0       	rjmp	.+4      	; 0x84 <__do_copy_data+0x10>
  80:	05 90       	lpm	r0, Z+
  82:	0d 92       	st	X+, r0
  84:	a4 34       	cpi	r26, 0x44	; 68
  86:	b1 07       	cpc	r27, r17
  88:	d9 f7       	brne	.-10     	; 0x80 <__do_copy_data+0xc>

0000008a <__do_clear_bss>:
  8a:	11 e0       	ldi	r17, 0x01	; 1
  8c:	a4 e4       	ldi	r26, 0x44	; 68
  8e:	b1 e0       	ldi	r27, 0x01	; 1
  90:	01 c0       	rjmp	.+2      	; 0x94 <.do_clear_bss_start>

00000092 <.do_clear_bss_loop>:
  92:	1d 92       	st	X+, r1

00000094 <.do_clear_bss_start>:
  94:	a9 38       	cpi	r26, 0x89	; 137
  96:	b1 07       	cpc	r27, r17
  98:	e1 f7       	brne	.-8      	; 0x92 <.do_clear_bss_loop>
  9a:	0e 94 53 00 	call	0xa6	; 0xa6 <main>
  9e:	0c 94 56 01 	jmp	0x2ac	; 0x2ac <_exit>

000000a2 <__bad_interrupt>:
  a2:	0c 94 00 00 	jmp	0	; 0x0 <__vectors>

000000a6 <main>:
/* 9600 baud */
#define UART_BAUD_RATE      9600    


int main(void)
{
  a6:	ff 92       	push	r15
  a8:	0f 93       	push	r16
  aa:	1f 93       	push	r17
	DDRD  |= (1 << PD5) | (1 << PD6) | (1 << PD7);
  ac:	8a b1       	in	r24, 0x0a	; 10
  ae:	80 6e       	ori	r24, 0xE0	; 224
  b0:	8a b9       	out	0x0a, r24	; 10
	PORTD |= (1 << PD5) | (1 << PD6) | (1 << PD7);
  b2:	8b b1       	in	r24, 0x0b	; 11
  b4:	80 6e       	ori	r24, 0xE0	; 224
  b6:	8b b9       	out	0x0b, r24	; 11
	unsigned int c;
	
	uart_init( UART_BAUD_SELECT(UART_BAUD_RATE,F_CPU));
  b8:	8f e5       	ldi	r24, 0x5F	; 95
  ba:	90 e0       	ldi	r25, 0x00	; 0
  bc:	0e 94 ea 00 	call	0x1d4	; 0x1d4 <uart_init>
	sei();
  c0:	78 94       	sei
	
	uart_puts("Welcome to LED Control.....Type R,G or B to turn color on or off...");
  c2:	80 e0       	ldi	r24, 0x00	; 0
  c4:	91 e0       	ldi	r25, 0x01	; 1
  c6:	0e 94 35 01 	call	0x26a	; 0x26a <uart_puts>
		   {
			   PORTD = (0 << PD5);
		   } 
		   else
		   {
			   PORTD = (1 << PD5);
  ca:	00 e2       	ldi	r16, 0x20	; 32
		   {
			   PORTD = (0 << PD6);
		   } 
		   else
		   {
			   PORTD = (1 << PD6);
  cc:	10 e4       	ldi	r17, 0x40	; 64
		   {
			   PORTD = (0 << PD7);
		   } 
		   else
		   {
			   PORTD = (1 << PD7);
  ce:	0f 2e       	mov	r0, r31
  d0:	f0 e8       	ldi	r31, 0x80	; 128
  d2:	ff 2e       	mov	r15, r31
  d4:	f0 2d       	mov	r31, r0
	sei();
	
	uart_puts("Welcome to LED Control.....Type R,G or B to turn color on or off...");
    while(1)
    {
       c = uart_getc();
  d6:	0e 94 03 01 	call	0x206	; 0x206 <uart_getc>
	   if (c & R)
  da:	9c 01       	movw	r18, r24
  dc:	22 75       	andi	r18, 0x52	; 82
  de:	30 70       	andi	r19, 0x00	; 0
  e0:	21 15       	cp	r18, r1
  e2:	31 05       	cpc	r19, r1
  e4:	31 f0       	breq	.+12     	; 0xf2 <main+0x4c>
	   {
		   //Turn red on or off
		   if (PORTD == (1 << PD5))
  e6:	2b b1       	in	r18, 0x0b	; 11
  e8:	20 32       	cpi	r18, 0x20	; 32
  ea:	11 f4       	brne	.+4      	; 0xf0 <main+0x4a>
		   {
			   PORTD = (0 << PD5);
  ec:	1b b8       	out	0x0b, r1	; 11
  ee:	01 c0       	rjmp	.+2      	; 0xf2 <main+0x4c>
		   } 
		   else
		   {
			   PORTD = (1 << PD5);
  f0:	0b b9       	out	0x0b, r16	; 11
		   }
	   }
	   if (c & G)
  f2:	9c 01       	movw	r18, r24
  f4:	27 74       	andi	r18, 0x47	; 71
  f6:	30 70       	andi	r19, 0x00	; 0
  f8:	21 15       	cp	r18, r1
  fa:	31 05       	cpc	r19, r1
  fc:	31 f0       	breq	.+12     	; 0x10a <main+0x64>
	   {
		   //Turn red on or off
		   if (PORTD == (1 << PD6))
  fe:	2b b1       	in	r18, 0x0b	; 11
 100:	20 34       	cpi	r18, 0x40	; 64
 102:	11 f4       	brne	.+4      	; 0x108 <main+0x62>
		   {
			   PORTD = (0 << PD6);
 104:	1b b8       	out	0x0b, r1	; 11
 106:	01 c0       	rjmp	.+2      	; 0x10a <main+0x64>
		   } 
		   else
		   {
			   PORTD = (1 << PD6);
 108:	1b b9       	out	0x0b, r17	; 11
		   }
	   }
	   if (c & B)
 10a:	82 74       	andi	r24, 0x42	; 66
 10c:	90 70       	andi	r25, 0x00	; 0
 10e:	00 97       	sbiw	r24, 0x00	; 0
 110:	11 f3       	breq	.-60     	; 0xd6 <main+0x30>
	   {
		   //Turn red on or off
		   if (PORTD == (1 << PD7))
 112:	8b b1       	in	r24, 0x0b	; 11
 114:	80 38       	cpi	r24, 0x80	; 128
 116:	11 f4       	brne	.+4      	; 0x11c <main+0x76>
		   {
			   PORTD = (0 << PD7);
 118:	1b b8       	out	0x0b, r1	; 11
 11a:	dd cf       	rjmp	.-70     	; 0xd6 <main+0x30>
		   } 
		   else
		   {
			   PORTD = (1 << PD7);
 11c:	fb b8       	out	0x0b, r15	; 11
 11e:	db cf       	rjmp	.-74     	; 0xd6 <main+0x30>

00000120 <SIG_USART_RECV>:
SIGNAL(UART0_RECEIVE_INTERRUPT)
/*************************************************************************
Function: UART Receive Complete interrupt
Purpose:  called when the UART has received a character
**************************************************************************/
{
 120:	1f 92       	push	r1
 122:	0f 92       	push	r0
 124:	0f b6       	in	r0, 0x3f	; 63
 126:	0f 92       	push	r0
 128:	11 24       	eor	r1, r1
 12a:	2f 93       	push	r18
 12c:	3f 93       	push	r19
 12e:	8f 93       	push	r24
 130:	9f 93       	push	r25
 132:	ef 93       	push	r30
 134:	ff 93       	push	r31
    unsigned char usr;
    unsigned char lastRxError;
 
 
    /* read UART status register and UART data register */ 
    usr  = UART0_STATUS;
 136:	30 91 c0 00 	lds	r19, 0x00C0
    data = UART0_DATA;
 13a:	20 91 c6 00 	lds	r18, 0x00C6
#elif defined ( ATMEGA_UART )
    lastRxError = (usr & (_BV(FE)|_BV(DOR)) );
#endif
        
    /* calculate buffer index */ 
    tmphead = ( UART_RxHead + 1) & UART_RX_BUFFER_MASK;
 13e:	80 91 66 01 	lds	r24, 0x0166
 142:	8f 5f       	subi	r24, 0xFF	; 255
 144:	8f 71       	andi	r24, 0x1F	; 31
    
    if ( tmphead == UART_RxTail ) {
 146:	90 91 67 01 	lds	r25, 0x0167
 14a:	89 17       	cp	r24, r25
 14c:	51 f0       	breq	.+20     	; 0x162 <SIG_USART_RECV+0x42>
#if defined( AT90_UART )
    lastRxError = (usr & (_BV(FE)|_BV(DOR)) );
#elif defined( ATMEGA_USART )
    lastRxError = (usr & (_BV(FE)|_BV(DOR)) );
#elif defined( ATMEGA_USART0 )
    lastRxError = (usr & (_BV(FE0)|_BV(DOR0)) );
 14e:	93 2f       	mov	r25, r19
 150:	98 71       	andi	r25, 0x18	; 24
    if ( tmphead == UART_RxTail ) {
        /* error: receive buffer overflow */
        lastRxError = UART_BUFFER_OVERFLOW >> 8;
    }else{
        /* store new index */
        UART_RxHead = tmphead;
 152:	80 93 66 01 	sts	0x0166, r24
        /* store received data in buffer */
        UART_RxBuf[tmphead] = data;
 156:	e8 e6       	ldi	r30, 0x68	; 104
 158:	f1 e0       	ldi	r31, 0x01	; 1
 15a:	e8 0f       	add	r30, r24
 15c:	f1 1d       	adc	r31, r1
 15e:	20 83       	st	Z, r18
 160:	01 c0       	rjmp	.+2      	; 0x164 <SIG_USART_RECV+0x44>
    /* calculate buffer index */ 
    tmphead = ( UART_RxHead + 1) & UART_RX_BUFFER_MASK;
    
    if ( tmphead == UART_RxTail ) {
        /* error: receive buffer overflow */
        lastRxError = UART_BUFFER_OVERFLOW >> 8;
 162:	92 e0       	ldi	r25, 0x02	; 2
        /* store new index */
        UART_RxHead = tmphead;
        /* store received data in buffer */
        UART_RxBuf[tmphead] = data;
    }
    UART_LastRxError = lastRxError;   
 164:	90 93 88 01 	sts	0x0188, r25
}
 168:	ff 91       	pop	r31
 16a:	ef 91       	pop	r30
 16c:	9f 91       	pop	r25
 16e:	8f 91       	pop	r24
 170:	3f 91       	pop	r19
 172:	2f 91       	pop	r18
 174:	0f 90       	pop	r0
 176:	0f be       	out	0x3f, r0	; 63
 178:	0f 90       	pop	r0
 17a:	1f 90       	pop	r1
 17c:	18 95       	reti

0000017e <SIG_USART_DATA>:
SIGNAL(UART0_TRANSMIT_INTERRUPT)
/*************************************************************************
Function: UART Data Register Empty interrupt
Purpose:  called when the UART is ready to transmit the next byte
**************************************************************************/
{
 17e:	1f 92       	push	r1
 180:	0f 92       	push	r0
 182:	0f b6       	in	r0, 0x3f	; 63
 184:	0f 92       	push	r0
 186:	11 24       	eor	r1, r1
 188:	8f 93       	push	r24
 18a:	9f 93       	push	r25
 18c:	ef 93       	push	r30
 18e:	ff 93       	push	r31
    unsigned char tmptail;

    
    if ( UART_TxHead != UART_TxTail) {
 190:	90 91 44 01 	lds	r25, 0x0144
 194:	80 91 45 01 	lds	r24, 0x0145
 198:	98 17       	cp	r25, r24
 19a:	71 f0       	breq	.+28     	; 0x1b8 <SIG_USART_DATA+0x3a>
        /* calculate and store new buffer index */
        tmptail = (UART_TxTail + 1) & UART_TX_BUFFER_MASK;
 19c:	80 91 45 01 	lds	r24, 0x0145
 1a0:	8f 5f       	subi	r24, 0xFF	; 255
 1a2:	8f 71       	andi	r24, 0x1F	; 31
        UART_TxTail = tmptail;
 1a4:	80 93 45 01 	sts	0x0145, r24
        /* get one byte from buffer and write it to UART */
        UART0_DATA = UART_TxBuf[tmptail];  /* start transmission */
 1a8:	e6 e4       	ldi	r30, 0x46	; 70
 1aa:	f1 e0       	ldi	r31, 0x01	; 1
 1ac:	e8 0f       	add	r30, r24
 1ae:	f1 1d       	adc	r31, r1
 1b0:	80 81       	ld	r24, Z
 1b2:	80 93 c6 00 	sts	0x00C6, r24
 1b6:	05 c0       	rjmp	.+10     	; 0x1c2 <SIG_USART_DATA+0x44>
    }else{
        /* tx buffer empty, disable UDRE interrupt */
        UART0_CONTROL &= ~_BV(UART0_UDRIE);
 1b8:	e1 ec       	ldi	r30, 0xC1	; 193
 1ba:	f0 e0       	ldi	r31, 0x00	; 0
 1bc:	80 81       	ld	r24, Z
 1be:	8f 7d       	andi	r24, 0xDF	; 223
 1c0:	80 83       	st	Z, r24
    }
}
 1c2:	ff 91       	pop	r31
 1c4:	ef 91       	pop	r30
 1c6:	9f 91       	pop	r25
 1c8:	8f 91       	pop	r24
 1ca:	0f 90       	pop	r0
 1cc:	0f be       	out	0x3f, r0	; 63
 1ce:	0f 90       	pop	r0
 1d0:	1f 90       	pop	r1
 1d2:	18 95       	reti

000001d4 <uart_init>:
Input:    baudrate using macro UART_BAUD_SELECT()
Returns:  none
**************************************************************************/
void uart_init(unsigned int baudrate)
{
    UART_TxHead = 0;
 1d4:	10 92 44 01 	sts	0x0144, r1
    UART_TxTail = 0;
 1d8:	10 92 45 01 	sts	0x0145, r1
    UART_RxHead = 0;
 1dc:	10 92 66 01 	sts	0x0166, r1
    UART_RxTail = 0;
 1e0:	10 92 67 01 	sts	0x0167, r1
    UCSRC = (3<<UCSZ0);
    #endif 
    
#elif defined (ATMEGA_USART0 )
    /* Set baud rate */
    if ( baudrate & 0x8000 ) 
 1e4:	99 23       	and	r25, r25
 1e6:	24 f4       	brge	.+8      	; 0x1f0 <uart_init+0x1c>
    {
   		UART0_STATUS = (1<<U2X0);  //Enable 2x speed 
 1e8:	22 e0       	ldi	r18, 0x02	; 2
 1ea:	20 93 c0 00 	sts	0x00C0, r18
   		baudrate &= ~0x8000;
 1ee:	9f 77       	andi	r25, 0x7F	; 127
   	}
    UBRR0H = (unsigned char)(baudrate>>8);
 1f0:	90 93 c5 00 	sts	0x00C5, r25
    UBRR0L = (unsigned char) baudrate;
 1f4:	80 93 c4 00 	sts	0x00C4, r24

    /* Enable USART receiver and transmitter and receive complete interrupt */
    UART0_CONTROL = _BV(RXCIE0)|(1<<RXEN0)|(1<<TXEN0);
 1f8:	88 e9       	ldi	r24, 0x98	; 152
 1fa:	80 93 c1 00 	sts	0x00C1, r24
    
    /* Set frame format: asynchronous, 8data, no parity, 1stop bit */
    #ifdef URSEL0
    UCSR0C = (1<<URSEL0)|(3<<UCSZ00);
    #else
    UCSR0C = (3<<UCSZ00);
 1fe:	86 e0       	ldi	r24, 0x06	; 6
 200:	80 93 c2 00 	sts	0x00C2, r24
    /* Enable UART receiver and transmitter and receive complete interrupt */
    UART0_CONTROL = _BV(RXCIE)|(1<<RXEN)|(1<<TXEN);

#endif

}/* uart_init */
 204:	08 95       	ret

00000206 <uart_getc>:
{    
    unsigned char tmptail;
    unsigned char data;


    if ( UART_RxHead == UART_RxTail ) {
 206:	90 91 66 01 	lds	r25, 0x0166
 20a:	80 91 67 01 	lds	r24, 0x0167
 20e:	98 17       	cp	r25, r24
 210:	91 f0       	breq	.+36     	; 0x236 <uart_getc+0x30>
        return UART_NO_DATA;   /* no data available */
    }
    
    /* calculate /store buffer index */
    tmptail = (UART_RxTail + 1) & UART_RX_BUFFER_MASK;
 212:	80 91 67 01 	lds	r24, 0x0167
 216:	8f 5f       	subi	r24, 0xFF	; 255
 218:	8f 71       	andi	r24, 0x1F	; 31
    UART_RxTail = tmptail; 
 21a:	80 93 67 01 	sts	0x0167, r24
    
    /* get data from receive buffer */
    data = UART_RxBuf[tmptail];
 21e:	e8 e6       	ldi	r30, 0x68	; 104
 220:	f1 e0       	ldi	r31, 0x01	; 1
 222:	e8 0f       	add	r30, r24
 224:	f1 1d       	adc	r31, r1
 226:	80 81       	ld	r24, Z
    
    return (UART_LastRxError << 8) + data;
 228:	90 91 88 01 	lds	r25, 0x0188
 22c:	39 2f       	mov	r19, r25
 22e:	20 e0       	ldi	r18, 0x00	; 0
 230:	28 0f       	add	r18, r24
 232:	31 1d       	adc	r19, r1
 234:	02 c0       	rjmp	.+4      	; 0x23a <uart_getc+0x34>
    unsigned char tmptail;
    unsigned char data;


    if ( UART_RxHead == UART_RxTail ) {
        return UART_NO_DATA;   /* no data available */
 236:	20 e0       	ldi	r18, 0x00	; 0
 238:	31 e0       	ldi	r19, 0x01	; 1
    /* get data from receive buffer */
    data = UART_RxBuf[tmptail];
    
    return (UART_LastRxError << 8) + data;

}/* uart_getc */
 23a:	82 2f       	mov	r24, r18
 23c:	93 2f       	mov	r25, r19
 23e:	08 95       	ret

00000240 <uart_putc>:
void uart_putc(unsigned char data)
{
    unsigned char tmphead;

    
    tmphead  = (UART_TxHead + 1) & UART_TX_BUFFER_MASK;
 240:	20 91 44 01 	lds	r18, 0x0144
 244:	2f 5f       	subi	r18, 0xFF	; 255
 246:	2f 71       	andi	r18, 0x1F	; 31
    
    while ( tmphead == UART_TxTail ){
 248:	90 91 45 01 	lds	r25, 0x0145
 24c:	29 17       	cp	r18, r25
 24e:	e1 f3       	breq	.-8      	; 0x248 <uart_putc+0x8>
        ;/* wait for free space in buffer */
    }
    
    UART_TxBuf[tmphead] = data;
 250:	e6 e4       	ldi	r30, 0x46	; 70
 252:	f1 e0       	ldi	r31, 0x01	; 1
 254:	e2 0f       	add	r30, r18
 256:	f1 1d       	adc	r31, r1
 258:	80 83       	st	Z, r24
    UART_TxHead = tmphead;
 25a:	20 93 44 01 	sts	0x0144, r18

    /* enable UDRE interrupt */
    UART0_CONTROL    |= _BV(UART0_UDRIE);
 25e:	e1 ec       	ldi	r30, 0xC1	; 193
 260:	f0 e0       	ldi	r31, 0x00	; 0
 262:	80 81       	ld	r24, Z
 264:	80 62       	ori	r24, 0x20	; 32
 266:	80 83       	st	Z, r24

}/* uart_putc */
 268:	08 95       	ret

0000026a <uart_puts>:
Purpose:  transmit string to UART
Input:    string to be transmitted
Returns:  none          
**************************************************************************/
void uart_puts(const char *s )
{
 26a:	cf 93       	push	r28
 26c:	df 93       	push	r29
 26e:	ec 01       	movw	r28, r24
    while (*s) 
 270:	88 81       	ld	r24, Y
 272:	88 23       	and	r24, r24
 274:	31 f0       	breq	.+12     	; 0x282 <uart_puts+0x18>
Function: uart_puts()
Purpose:  transmit string to UART
Input:    string to be transmitted
Returns:  none          
**************************************************************************/
void uart_puts(const char *s )
 276:	21 96       	adiw	r28, 0x01	; 1
{
    while (*s) 
      uart_putc(*s++);
 278:	0e 94 20 01 	call	0x240	; 0x240 <uart_putc>
Input:    string to be transmitted
Returns:  none          
**************************************************************************/
void uart_puts(const char *s )
{
    while (*s) 
 27c:	89 91       	ld	r24, Y+
 27e:	88 23       	and	r24, r24
 280:	d9 f7       	brne	.-10     	; 0x278 <uart_puts+0xe>
      uart_putc(*s++);

}/* uart_puts */
 282:	df 91       	pop	r29
 284:	cf 91       	pop	r28
 286:	08 95       	ret

00000288 <uart_puts_p>:
Purpose:  transmit string from program memory to UART
Input:    program memory string to be transmitted
Returns:  none
**************************************************************************/
void uart_puts_p(const char *progmem_s )
{
 288:	cf 93       	push	r28
 28a:	df 93       	push	r29
 28c:	ec 01       	movw	r28, r24
    register char c;
    
    while ( (c = pgm_read_byte(progmem_s++)) ) 
 28e:	fc 01       	movw	r30, r24
 290:	84 91       	lpm	r24, Z+
 292:	88 23       	and	r24, r24
 294:	41 f0       	breq	.+16     	; 0x2a6 <uart_puts_p+0x1e>
 296:	21 96       	adiw	r28, 0x01	; 1
      uart_putc(c);
 298:	0e 94 20 01 	call	0x240	; 0x240 <uart_putc>
 29c:	fe 01       	movw	r30, r28
**************************************************************************/
void uart_puts_p(const char *progmem_s )
{
    register char c;
    
    while ( (c = pgm_read_byte(progmem_s++)) ) 
 29e:	21 96       	adiw	r28, 0x01	; 1
 2a0:	84 91       	lpm	r24, Z+
 2a2:	88 23       	and	r24, r24
 2a4:	c9 f7       	brne	.-14     	; 0x298 <uart_puts_p+0x10>
      uart_putc(c);

}/* uart_puts_p */
 2a6:	df 91       	pop	r29
 2a8:	cf 91       	pop	r28
 2aa:	08 95       	ret

000002ac <_exit>:
 2ac:	f8 94       	cli

000002ae <__stop_program>:
 2ae:	ff cf       	rjmp	.-2      	; 0x2ae <__stop_program>
