:100000000C94B5000C94D2000C94D2000C946004B3
:100010000C94D2000C9429040C94D2000C94D200BD
:100020000C94D2000C94D2000C94D2000C94D40303
:100030000C94D2000C94D2000C94D2000C94D200F8
:100040000C94D2000C94D2000C94D2000C94D200E8
:100050000C94D2000C94D2000C94D2000C94D200D8
:100060000C94D2000C94D2006E616E00696E660032
:1000700000407A10F35A00A0724E18090010A5D45F
:10008000E80000E87648170000E40B54020000CABC
:100090009A3B000000E1F505000080969800000002
:1000A00040420F000000A086010000001027000061
:1000B0000000E803000000006400000000000A00E7
:1000C000000000000100000000002C76D888DC67EA
:1000D0004F0823DFC1DFAE59E1B1B796E5E3E45342
:1000E000C63AE651997696E8E6C28426EB898C9B5F
:1000F00062ED407C6FFCEFBC9C9F40F2BAA56FA5FF
:10010000F490055A2AF75C936B6CF9676DC11BFC80
:10011000E0E40D47FEF520E6B500D0ED902E03009B
:10012000943577050080841E080000204E0A0000E8
:1001300000C80C333333330F986E12831141EF8DA7
:100140002114893BE65516CFFEE6DB18D1844B38E7
:100150001BF77C1D901DA4BBE424203284725E2218
:100160008100C9F124ECA1E53D2711241FBECFEF8A
:10017000D8E0DEBFCDBF11E0A0E0B1E0E6EEF8E1EF
:1001800002C005900D92A837B107D9F721E0A8E782
:10019000B1E001C01D92A23DB207E1F70E94C20387
:1001A0000C94710C0C940000E1E8F0E082E0808394
:1001B00080818860808389EF90E0909389008093AC
:1001C0008800EFE6F0E080818260808380E090E04C
:1001D0000895E8E6F0E0808185608083EBE6F0E05A
:1001E000808181608083EDE6F0E08081806880839B
:1001F00008958091940190919501813A9F4080F1FA
:1002000049990AC081E090E090939D0180939C0100
:1002100010929501109294014A990AC081E090E0F1
:1002200090939901809398011092950110929401F6
:100230004B990AC081E090E090939B0180939A01D2
:1002400010929501109294014C990AC081E090E0BF
:1002500090939701809396011092950110929401CA
:100260000895CF92DF92EF92FF9280E090E0A0E6B7
:10027000B0E48093780190937901A0937A01B093D0
:100280007B018091A0019091A101892BE1F0609107
:10029000A0017091A10180E090E00E942E0620E074
:1002A00030E543EC57E40E94BC0620E030E040E635
:1002B00050E40E9462056093780170937901809305
:1002C0007A0190937B018091A2019091A301892BE7
:1002D00011F16091A2017091A30180E090E00E9471
:1002E0002E0620E030E048EC52E40E94BC069B0160
:1002F000AC01609178017091790180917A019091BF
:100300007B010E946205609378017093790180936C
:100310007A0190937B018091A4019091A501892B92
:1003200011F16091AE017091AF0180E090E00E9408
:100330002E0620E030E040E251E40E94C6059B0119
:10034000AC01609178017091790180917A0190916E
:100350007B010E946205609378017093790180931C
:100360007A0190937B016091A6017091A70180E0D2
:1003700090E00E942E0620E030E040E251E40E942E
:10038000C60520E030E04AE753E40E94C60520910C
:1003900078013091790140917A0150917B010E945E
:1003A00062059B01AC0160937801709379018093A1
:1003B0007A0190937B0160E070E084EC92E40E940B
:1003C000C6056B017C0160938C0170938D01809355
:1003D0008E0190938F0128E439EF41E550E40E94AB
:1003E000BC0660938401709385018093860190938D
:1003F000870120910001309101014091020150914B
:100400000301C701B6010E94BC069B01AC01C701F4
:10041000B6010E94BC0620E030E04AEF54E40E949E
:10042000C605609388017093890180938A01909337
:100430008B015E9AFF90EF90DF90CF9008958091AE
:10044000920190919301892B31F0109293011092B7
:1004500092010E9431010E94330580910801909120
:1004600009018431910509F462C028F4009759F01C
:100470000A97E1F01FC18E31910509F499C0889760
:1004800009F4D7C017C181E1E6E5F1E0A1ECB1E0E4
:1004900001900D928A95E1F781E1E7E6F1E0A0EBAA
:1004A000B1E001900D928A95E1F708C180910301B6
:1004B0008F93809102018F93809101018F9380919E
:1004C00000018F938AE091E09F938F9381EC91E0FC
:1004D0009F938F930E94F10B80918B018F9380915A
:1004E0008A018F93809189018F93809188018F93E6
:1004F00080918F018F9380918E018F9380918D01D8
:100500008F9380918C018F938CE191E09F938F93D7
:1005100080EB91E09F938F930E94F10B8DB79EB774
:1005200044960FB6F8949EBF0FBE8DBFC7C0809192
:1005300003018F93809102018F93809101018F932A
:10054000809100018F9380E391E09F938F9381ECE2
:1005500091E09F938F930E94F10B809183018F9381
:10056000809182018F93809181018F93809180018E
:100570008F93809107018F93809106018F938091D3
:1005800005018F93809104018F938CE191E09F93FB
:100590008F9380EB91E09F938F930E94F10B8DB727
:1005A0009EB744960FB6F8949EBF0FBE8DBF86C00F
:1005B000809103018F93809102018F9380910101BB
:1005C0008F93809100018F938AE091E09F938F93A6
:1005D00081EC91E09F938F930E94F10B80918B01AE
:1005E0008F9380918A018F93809189018F9380915D
:1005F00088018F93809187018F93809186018F93DB
:10060000809185018F93809184018F9382E491E0A2
:100610009F938F9380EB91E09F938F930E94F10BB8
:100620008DB79EB744960FB6F8949EBF0FBE8DBF90
:1006300045C0809103018F93809102018F93809137
:1006400001018F93809100018F9380E391E09F934C
:100650008F9381EC91E09F938F930E94F10B809197
:1006600083018F93809182018F93809181018F9379
:10067000809180018F9380917F018F9380917E0183
:100680008F9380917D018F9380917C018F9382E481
:1006900091E09F938F9380EB91E09F938F930E94C3
:1006A000F10B8DB79EB744960FB6F8949EBF0FBE60
:1006B0008DBF04C010920901109208010E94F90038
:1006C00080919C0190919D01892B69F010929D0170
:1006D00010929C0180910801909109010A969093D3
:1006E00009018093080180919A0190919B01892BC7
:1006F000D1F010929B0110929A012AE037ED43E26B
:100700005CE3609100017091010180910201909180
:1007100003010E94620560930001709301018093C0
:100720000201909303018091980190919901892B86
:10073000D1F010929901109298012AE037ED43E22E
:100740005CE3609100017091010180910201909140
:1007500003010E9461056093000170930101809381
:1007600002019093030181EC91E00E94520562E046
:1007700080E00E943D0580EB91E00E94520580E000
:1007800090E008958AB181768AB920988BB18E6104
:100790008BB9569A0E94E9000E94D4000E94F60488
:1007A00078940E941F02FDCF1F920F920FB60F92F6
:1007B00011242F938F939F938091AE019091AF015D
:1007C00001969093AF018093AE0180919401909136
:1007D0009501019690939501809394018091AE01CB
:1007E0009091AF01883E934060F11092AF0110925A
:1007F000AE018091AC019091AD0101969093AD0155
:100800008093AC018091AC019091AD01883E934002
:10081000C0F01092AD011092AC018091AA019091AC
:10082000AB0101969093AB018093AA018091AA013C
:100830009091AB01883E934020F01092AB01109252
:10084000AA019F918F912F910F900FBE0F901F9033
:1008500018951F920F920FB60F9211248F939F93AA
:10086000EF93FF9381E090E090939101809390014A
:100870005E98F894EFE6F0E080818D7F808310929F
:100880008500109284001092AF011092AE01109278
:10089000AD011092AC011092AB011092AA0110921E
:1008A000A9011092A8018081826080837894FF91D1
:1008B000EF919F918F910F900FBE0F901F90189501
:1008C0001F920F920FB60F9211248F939F93EF9365
:1008D000FF93F894EFE6F0E080818D7F8083809134
:1008E0008400909185009093A7018093A601809148
:1008F000AE019091AF019093A5018093A4018091E6
:10090000AC019091AD019093A3018093A2018091DD
:10091000AA019091AB019093A1018093A0018091D5
:10092000A8019091A90190939F0180939E018091CD
:10093000900190919101019751F481E090E09093A2
:100940009301809392011092910110929001EFE631
:10095000F0E08081826080837894FF91EF919F9195
:100960008F910F900FBE0F901F901895459A85E8B4
:100970008A95F1F700004598089598B1907F98B94D
:1009800098B182958F70982B98B90E94B6040895FB
:10099000CF93C82F449A0E94BD048C2F8295807FEC
:1009A0000E94BD0485EE90E00197F1F700C00000C1
:1009B000CF910895CF93C82F44980E94BD048C2FE7
:1009C0008295807F0E94BD0481ED90E00197F1F750
:1009D00000C00000CF91089581E00E94DA048FE00A
:1009E00097E20197F1F700C00000089587B18F6387
:1009F00087B988B1807C88B92FE58AEE90E02150D4
:100A000080409040E1F700C0000080E30E94BD04F8
:100A100087EA91E60197F1F700C000000E94B60452
:100A200087E893E10197F1F700C000000E94B60447
:100A300087E893E10197F1F700C0000080E20E948F
:100A4000BD0487EA91E60197F1F700C0000088E253
:100A50000E94DA048CE00E94DA0486E00E94DA0444
:100A60000E94EC04089582E00E94DA048FE097E28D
:100A70000197F1F700C000000895623059F018F4B2
:100A8000613031F00895633039F0643039F0089501
:100A9000805805C0805403C0805701C080530E9415
:100AA000DA040895CF93DF93EC018881882331F035
:100AB00021960E94C80489918111FBCFDF91CF91CB
:100AC00008955058BB27AA270ED01CC10DD130F075
:100AD00012D120F031F49F3F11F41EF402C10EF444
:100AE000E095E7FBF8C0E92F1ED180F3BA17620743
:100AF00073078407950718F071F49EF536C10EF45C
:100B0000E0950B2EBA2FA02D0B01B90190010C011D
:100B1000CA01A0011124FF27591B99F0593F50F435
:100B2000503E68F11A16F040A22F232F342F44278D
:100B3000585FF3CF469537952795A795F040539585
:100B4000C9F77EF41F16BA0B620B730B840BBAF055
:100B50009150A1F0FF0FBB1F661F771F881FC2F7C0
:100B60000EC0BA0F621F731F841F48F487957795D4
:100B70006795B795F7959E3F08F0B3CF9395880F8B
:100B800008F09927EE0F9795879508950CD0BAC075
:100B9000B2D040F0A9D030F021F45F3F19F09BC0F3
:100BA0005111E4C09EC0BFD098F39923C9F35523D7
:100BB000B1F3951B550BBB27AA2762177307840750
:100BC00038F09F5F5F4F220F331F441FAA1FA9F306
:100BD00033D00E2E3AF0E0E830D091505040E695F8
:100BE000001CCAF729D0FE2F27D0660F771F881F59
:100BF000BB1F261737074807AB07B0E809F0BB0B48
:100C0000802DBF01FF2793585F4F2AF09E3F51056B
:100C100068F061C0ABC05F3FECF3983EDCF38695B3
:100C200077956795B795F7959F5FC9F7880F911DE1
:100C30009695879597F90895E1E0660F771F881FCD
:100C4000BB1F621773078407BA0720F0621B730B80
:100C5000840BBA0BEE1F88F7E0950895E89409C05D
:100C600097FB3EF490958095709561957F4F8F4FDF
:100C70009F4F9923A9F0F92F96E9BB279395F695F5
:100C8000879577956795B795F111F8CFFAF4BB0F73
:100C900011F460FF1BC06F5F7F4F8F4F9F4F16C0D7
:100CA000882311F096E911C0772321F09EE8872F61
:100CB000762F05C0662371F096E8862F70E060E01D
:100CC0002AF09A95660F771F881FDAF7880F969596
:100CD000879597F9089597F99F6780E870E060E03D
:100CE00008959FEF80EC089500240A9416161706C5
:100CF00018060906089500240A941216130614060D
:100D000005060895092E0394000C11F4882352F06F
:100D1000BB0F40F4BF2B11F460FF04C06F5F7F4F27
:100D20008F4F9F4F089557FD9058440F551F59F00E
:100D30005F3F71F04795880F97FB991F61F09F3FC8
:100D400079F087950895121613061406551FF2CFF1
:100D50004695F1DF08C0161617061806991FF1CF41
:100D600086957105610508940895E894BB27662768
:100D70007727CB0197F908950BD0C4CFB5DF28F0C2
:100D8000BADF18F0952309F0A6CFABCF1124EECF30
:100D9000CADFA0F3959FD1F3950F50E0551F629FD6
:100DA000F001729FBB27F00DB11D639FAA27F00DC4
:100DB000B11DAA1F649F6627B00DA11D661F829FEB
:100DC0002227B00DA11D621F739FB00DA11D621FD0
:100DD000839FA00D611D221F749F3327A00D611DED
:100DE000231F849F600D211D822F762F6A2F1124CF
:100DF0009F5750408AF0E1F088234AF0EE0FFF1F22
:100E0000BB1F661F771F881F91505040A9F79E3F58
:100E1000510570F060CFAACF5F3FECF3983EDCF352
:100E2000869577956795B795F795E7959F5FC1F795
:100E3000FE2B880F911D9695879597F90895A3E14C
:100E4000B0E0E5E2F7E00C949A0A7C011B016A012C
:100E5000FC0117821682838181FF66C3BE016F5F2A
:100E60007F4F4B01F7019381F10193FD859193FF32
:100E700081911F01882309F453C3853239F493FD0E
:100E8000859193FF81911F01853239F4B70190E07C
:100E90000E94BF0B56016501E5CF10E0512C20E008
:100EA0002032A0F48B3269F030F4803259F0833272
:100EB00069F420612CC08D3239F0803339F421601F
:100EC00026C02260246023C0286021C027FD27C0DF
:100ED00030ED380F3A3078F426FF06C0FAE01F9F55
:100EE000300D1124132F13C06AE0569E300D1124CB
:100EF000532E20620CC08E3221F426FD11C32064D3
:100F000006C08C3611F4206802C0883641F4F10125
:100F100093FD859193FF81911F018111C1CF9BEBBF
:100F2000980F933018F42061805E06C09BE9980FFB
:100F3000933008F0AAC12F7E26FF16E02F73722E81
:100F4000853621F4F22FF0647F2E08C0863621F416
:100F5000622F6068762E02C01111115077FE07C013
:100F60001C3348F444244394410E27E00BC018304E
:100F700030F4212F06C027E04CE3442E03C027E0C5
:100F800017E0412C560174E0A70EB11CF6016081F8
:100F9000718182819381042DA4010E94D10A6C0188
:100FA000098100FF02C003FF06C071FC07C072FC8C
:100FB00008C0612C08C03DE2632E05C02BE2622E02
:100FC00002C090E2692E802F8C7099F1662011F09A
:100FD00084E001C083E0851510F0512C0BC0581A35
:100FE00073FC08C0B70180E290E00E94BF0B5A94E6
:100FF000C9F7F3CF662029F0B701862D90E00E9453
:10100000BF0B03FD03C00CE610E002C008E610E0D1
:10101000F72DF0717F2EF8018491882309F476C2B0
:1010200071108052B70190E00E94BF0B0F5F1F4FFD
:10103000F2CF77FE0FC04C0C04FF04C08A818133CD
:1010400009F44A94141474F5F8E0F41578F588E07E
:10105000482E2CC076FC2AC0812F90E08C159D056F
:101060009CF06CEFC6166FEFD60674F0772D7068A3
:10107000772E0AC0E2E0F0E0EC0FFD1FE10FF11D5A
:101080008081803319F411501111F4CF77FE0EC016
:1010900044244394410E812F90E0C816D9062CF4C5
:1010A0001C1904C04424439401C010E077FE07C01B
:1010B0001C141D043CF496012F5F3F4F05C025E032
:1010C00030E002C021E030E0662011F02F5F3F4F9A
:1010D000112331F0412F50E04F5F5F4F240F351F38
:1010E000452D50E02417350714F4521A01C0512C35
:1010F000872D897049F4552039F0B70180E290E0DE
:101100000E94BF0B5A94F7CF662029F0B701862DB5
:1011100090E00E94BF0B73FC09C0552039F0B70165
:1011200080E390E00E94BF0B5A94F7CF77FE5FC038
:101130009C2D8D2DD7FE02C090E080E0692E782E88
:1011400040E050E0C601841991099D878C87960183
:1011500026193709280D391D812F90E0EE27FF272A
:10116000E81BF90BFF87EE87FFEF6F167F0669F428
:10117000B7018EE290E02B8B3A8B488B598B0E9403
:10118000BF0B598948893A892B89C614D70454F072
:101190006C857D85661577052CF4F901E40FF51F44
:1011A000818101C080E371E0671A71084F5F5F4F72
:1011B000EE85FF856E167F066CF0B70190E02B8BF5
:1011C0003A8B488B598B0E94BF0B2B893A894889EF
:1011D0005989CACF6C147D0439F49A81963318F476
:1011E000953311F404FF81E3B70190E04BC08A818D
:1011F000813309F00F7EB70190E00E94BF0B1111FF
:1012000005C074FE18C085E490E017C0B7018EE2F7
:1012100090E00E94BF0B82E066246394680EF401A4
:10122000E80FF11D8081B70190E00E94BF0B1150C3
:1012300041F3862DF1CF85E690E0B7010E94BF0B08
:10124000D7FC05C0C114D10439F404FF05C0D19402
:10125000C194D1088DE201C08BE2B70190E00E94F9
:10126000BF0B80E36AE0C616D1042CF08F5FFAE072
:10127000CF1AD108F7CFB70190E00E94BF0BB7019A
:10128000C601C0960E94BF0B41C1833631F083373F
:1012900079F0833509F058C021C0560172E0A70EDD
:1012A000B11CF6018081898301E010E0640114C063
:1012B0005601F2E0AF0EB11CF601C080D18026FFCE
:1012C00003C0612F70E002C06FEF7FEFC6012B8B70
:1012D0000E94B40B8C012B892F7715C05601F2E0C8
:1012E000AF0EB11CF601C080D18026FF03C0612F74
:1012F00070E002C06FEF7FEFC6012B8B0E94A90B3D
:101300008C012B892068722E23FD1AC0852D90E058
:1013100008171907A8F4B70180E290E00E94BF0BFC
:101320005A94F4CFF60177FC859177FE81916F0195
:10133000B70190E00E94BF0B51105A94015011095F
:101340000115110579F7E2C0843611F0893651F59F
:10135000560127FF09C0F4E0AF0EB11CF601608111
:101360007181828193810AC0F2E0AF0EB11CF60157
:1013700060817181882777FD8095982F022F0F76E5
:1013800097FF08C090958095709561957F4F8F4F1E
:101390009F4F00682AE030E0A4010E94130CC82E81
:1013A000C8183EC0022F853721F40F7E2AE030E0B6
:1013B0001DC0097F8F3691F018F4883559F0B0C000
:1013C000803719F0883711F0ABC0006104FF09C005
:1013D000046007C024FF08C0066006C028E030E0B3
:1013E00005C020E130E002C020E132E0560107FFF5
:1013F00009C0F4E0AF0EB11CF601608171818281F9
:10140000938108C0F2E0AF0EB11CF60160817181DA
:1014100080E090E0A4010E94130CC82EC8180F773A
:1014200006FF0BC0202F2E7FC11650F404FF0AC008
:1014300002FD08C0202F2E7E05C0DC2C202F03C00B
:10144000DC2C01C0D12E24FF0DC0FE01EC0DF11DDE
:101450008081803311F4297E09C022FF06C0D39415
:10146000D39404C0822F867809F0D39423FD13C04F
:1014700020FF06C01C2DD51418F4150D1D19D52CF0
:10148000D51468F4B70180E290E02B8B0E94BF0B6B
:10149000D3942B89F5CFD51410F45D1801C0512CCD
:1014A00024FF12C0B70180E390E02B8B0E94BF0B9A
:1014B0002B8922FF17C021FF03C088E590E002C0FE
:1014C00088E790E0B7010CC0822F867859F021FDA3
:1014D00002C080E201C08BE227FD8DE2B70190E0FF
:1014E0000E94BF0BC11638F4B70180E390E00E9460
:1014F000BF0B1150F7CFCA94F401EC0DF11D8081A0
:10150000B70190E00E94BF0BC110F5CF552009F440
:10151000C2CCB70180E290E00E94BF0B5A94F6CF94
:10152000F7018681978102C08FEF9FEF6396E2E11A
:101530000C94B60A2F923F924F925F926F927F92D5
:101540008F929F92AF92BF92CF92DF92EF92FF92D3
:101550000F931F93CF93DF93CDB7DEB7CA1BDB0B7F
:101560000FB6F894DEBF0FBECDBF09942A88398824
:1015700048885F846E847D848C849B84AA84B9842B
:10158000C884DF80EE80FD800C811B81AA81B98137
:10159000CE0FD11D0FB6F894DEBF0FBECDBFED014B
:1015A0000895283008F027E03327DA01990F311D1C
:1015B00087FD916000966105710539F432602E5FF8
:1015C0003D9330E32A95E1F708959F3F30F080384E
:1015D0007105610509F03C5F3C5F3D93913008F077
:1015E0008068911DDF93CF931F930F93FF92EF922B
:1015F000192F987F9695E92F96959695E90FFF27D5
:10160000E653FF4F99273327EE24FF24A701E70174
:1016100005900894079428F4360FE71EF81E491F1A
:10162000511D660F771F881F991F0694A1F705901B
:10163000079428F4E70EF81E491F561FC11D770FA7
:10164000881F991F661F0694A1F70590079428F438
:10165000F80E491F561FC71FD11D880F991F661FFF
:10166000771F0694A1F70590079420F4490F561FA1
:10167000C71FD81F990F661F771F881F0694A9F7E9
:1016800084911095177041F0D695C7955795479559
:10169000F794E7941A95C1F7E0E7F0E068941590A5
:1016A000159135916591959105907FE27395E118BB
:1016B000F10A430B560BC90BD009C0F7E10CF11E20
:1016C000431F561FC91FD01D7EF4703311F48A9535
:1016D000E6CFE894015030F0080F0AF40027021713
:1016E00008F4202F2395022F7A3328F079E37D9395
:1016F0002A95E9F710C07D932A9589F60694979567
:101700006795379517951794E118F10A430B560B17
:10171000C90BD00998F023957E9173957A3308F020
:1017200070E37C932013B8F77E9170617D9330F065
:10173000839571E37D9370E32A95E1F71124EF908F
:10174000FF900F911F91CF91DF91992787FD909581
:101750000895FC010590615070400110D8F7809504
:1017600090958E0F9F1F0895FC016150704001906D
:101770000110D8F7809590958E0F9F1F08950F93B5
:101780001F93CF93DF93182F092FEB018B8181FDDE
:1017900003C08FEF9FEF20C082FF10C04E815F819A
:1017A0002C813D81421753077CF4E881F9819F0128
:1017B0002F5F3F4F39832883108306C0E885F98562
:1017C000812F0995892B29F72E813F812F5F3F4F6C
:1017D0003F832E83812F902FDF91CF911F910F9107
:1017E0000895AEE0B0E0E7EFFBE00C94A80A0D89A5
:1017F0001E8986E08C831A8309838FEF9FE79E837F
:101800008D83AE01475E5F4F6F89788DCE01019663
:101810000E941F07EF81F885E00FF11F10822E96BE
:10182000E4E00C94C40AFA01AA27283051F12031CF
:1018300081F1E8946F936E7F6E5F7F4F8F4F9F4F64
:10184000AF4FB1E03ED0B4E03CD0670F781F891FA6
:101850009A1FA11D680F791F8A1F911DA11D6A0F74
:10186000711D811D911DA11D20D009F468943F9127
:101870002AE0269F11243019305D3193DEF6CF0126
:101880000895462F4770405D4193B3E00FD0C9F7EC
:10189000F6CF462F4F70405D4A3318F0495D31FD59
:1018A0004052419302D0A9F7EACFB4E0A6959795AC
:1018B000879577956795BA95C9F700976105710582
:1018C00008959B01AC010A2E0694579547953795CC
:1018D0002795BA95C9F7620F731F841F951FA01D26
:0618E0000895F894FFCF0B
:1018E600CDCC4C3E6F1203420A00206375727265BE
:1018F6006E74205B25312E3266675D0025332E30EF
:1019060066206D2F73202D2025312E3266204A0049
:101916002061766572616765205B25312E326667C8
:101926005D0025332E306620667073202D2025310C
:101936002E3266204A00766F6C6C20686566746984
:10194600676573202020004156522D4368726F6EE2
:081956006F2120202020200059
:00000001FF
