:1000000012C085C023C022C021C020C01FC01EC096
:100010001DC01CC01BC01AC019C018C017C016C014
:1000200015C014C013C011241FBECFE5D4E0DEBF3D
:10003000CDBF10E0A0E6B0E0E0E6F1E002C0059040
:100040000D92A236B107D9F72BD088C0D9CFC29A6A
:10005000C298823081F018F4813009F505C08330F0
:1000600089F08430E1F415C08AE090E0AD9AAD9853
:100070000197E1F708958AE090E0AC9AAC98019777
:10008000E1F708958AE090E0AB9AAB980197E1F729
:1000900008958AE090E0AA9AAA980197E1F7089556
:1000A00084B38C6384BBBF988D988E988F988A9800
:1000B000BA9AC79A82B3806E82BB929A85B78260E1
:1000C00085BF8BB780648BBF8299FECFB79905C07F
:1000D00081E0BDDF10926000F7CF859905C082E016
:1000E000B6DF10926000F0CF869905C083E0AFDFE5
:1000F00010926000E9CF8799E7CF84E0A8DF1092E3
:100100006000E2CF8FEF85BB85B315BA08951F92CB
:100110000F920FB60F9211242F933F934F935F933B
:100120006F937F938F939F93AF93BF93EF93FF93BF
:10013000F89481E080936000E5DFFF91EF91BF913B
:10014000AF919F918F917F916F915F914F913F916F
:100150002F910F900FBE0F901F901895F894FFCF1E
:0201600001009C
:00000001FF
