:100000000C9460000C947D000C947D000C947D0099
:100010000C947D000C947D000C947D000C947D006C
:100020000C947D000C947D000C947D000C947D005C
:100030000C947D000C947D000C947D000C947D004C
:100040000C947D000C947D000C947F000C94B10006
:100050000C947D000C947D000C947D000C947D002C
:100060000C947D000C947D00537472696E6720734C
:10007000746F72656420696E20464C4153480A00D3
:1000800055415254204672616D65204572726F72FF
:100090003A200055415254204F76657272756E2099
:1000A0004572726F723A2000427566666572206F03
:1000B000766572666C6F77206572726F723A200097
:1000C00011241FBECFEFD8E0DEBFCDBF11E0A0E00E
:1000D000B1E0E2ECF3E002C005900D92A831B10767
:1000E000D9F711E0A8E1B1E001C01D92AD35B1072B
:1000F000E1F70E9445010C94DF010C9400001F926F
:100100000F920FB60F9211242F933F938F939F93CB
:10011000EF93FF932091C0003091C60080911A01A7
:100120008F5F8F7190911901891749F02871809321
:100130001A01EDE1F1E0E80FF11D308301C022E08A
:1001400090911801822F892B80931801FF91EF91D4
:100150009F918F913F912F910F900FBE0F901F9005
:1001600018951F920F920FB60F9211248F939F93A1
:10017000EF93FF9390911C0180911B01981771F0F0
:1001800080911B018F5F8F7180931B01EDE3F1E084
:10019000E80FF11D80818093C60005C0E1ECF0E01E
:1001A00080818F7D8083FF91EF919F918F910F9040
:1001B0000FBE0F901F90189510921C0110921B01FA
:1001C00010921A0110921901992324F422E020932D
:1001D000C0009F779093C5008093C40088E9809306
:1001E000C10086E08093C200089590911A01809129
:1001F0001901981789F0809119018F5F8F71809391
:100200001901EDE1F1E0E80FF11D808190911801F5
:100210001092180190E0089580E091E008952091F7
:100220001C012F5F2F7190911B012917E1F3EDE362
:10023000F1E0E20FF11D808320931C01E1ECF0E07E
:100240008081806280830895CF93DF93EC01888161
:10025000882331F021960E940F0189918823D9F7D4
:10026000DF91CF910895CF93DF93EC01FC0184914E
:10027000882341F021960E940F01FE01219684916E
:100280008823C9F7DF91CF910895CF93DF93CDB73E
:10029000DEB727970FB6F894DEBF0FBECDBF8AB189
:1002A000806E8AB981E890E00E94DC00789480E05A
:1002B00091E00E94240188E690E00E94330186E8E4
:1002C00090E0BE016F5F7F4F4AE050E00E949A01CC
:1002D000CE0101960E9424010F2EF8EAEF2EF0E0E5
:1002E000FF2EF02D0F2EF3E9CF2EF0E0DF2EF02DB4
:1002F0000F2EF0E8AF2EF0E0BF2EF02D0E94F5009B
:100300008C0190FDFBCF94FF03C0C5010E94330117
:1003100013FF03C0C6010E94330111FF03C0C701D0
:100320000E943301802F0E940F01802F0E940F0135
:100330005D9AE4CFFB019F01E8944230C4F045325E
:10034000B4F44A3029F497FB1EF4909581959F4FA1
:10035000642F77270E94CB01805D8A330CF0895D82
:100360008193CB010097A1F716F45DE251931082BF
:10037000C9010C94BB01DC01FC01672F719177234B
:10038000E1F7329704C07C916D9370836291AE1750
:10039000BF07C8F30895AA1BBB1B51E107C0AA1FE2
:1003A000BB1FA617B70710F0A61BB70B881F991F16
:1003B0005A95A9F780959095BC01CD010895F894C0
:0203C000FFCF6D
:1003C200537472696E672073746F72656420696E0C
:0803D200205352414D0A0000C6
:00000001FF
