
SPI Engineersgarage.com Master.elf:     file format elf32-avr

Sections:
Idx Name          Size      VMA       LMA       File off  Algn
  0 .text         0000011a  00000000  00000000  00000074  2**1
                  CONTENTS, ALLOC, LOAD, READONLY, CODE
  1 .bss          00000001  00800100  00800100  0000018e  2**0
                  ALLOC
  2 .stab         000006cc  00000000  00000000  00000190  2**2
                  CONTENTS, READONLY, DEBUGGING
  3 .stabstr      00000090  00000000  00000000  0000085c  2**0
                  CONTENTS, READONLY, DEBUGGING
  4 .debug_aranges 00000020  00000000  00000000  000008ec  2**0
                  CONTENTS, READONLY, DEBUGGING
  5 .debug_pubnames 00000054  00000000  00000000  0000090c  2**0
                  CONTENTS, READONLY, DEBUGGING
  6 .debug_info   000000e9  00000000  00000000  00000960  2**0
                  CONTENTS, READONLY, DEBUGGING
  7 .debug_abbrev 00000096  00000000  00000000  00000a49  2**0
                  CONTENTS, READONLY, DEBUGGING
  8 .debug_line   000001b6  00000000  00000000  00000adf  2**0
                  CONTENTS, READONLY, DEBUGGING
  9 .debug_frame  00000050  00000000  00000000  00000c98  2**2
                  CONTENTS, READONLY, DEBUGGING
 10 .debug_str    0000010e  00000000  00000000  00000ce8  2**0
                  CONTENTS, READONLY, DEBUGGING
 11 .debug_pubtypes 0000002b  00000000  00000000  00000df6  2**0
                  CONTENTS, READONLY, DEBUGGING

Disassembly of section .text:

00000000 <__vectors>:
   0:	0c 94 34 00 	jmp	0x68	; 0x68 <__ctors_end>
   4:	0c 94 46 00 	jmp	0x8c	; 0x8c <__bad_interrupt>
   8:	0c 94 46 00 	jmp	0x8c	; 0x8c <__bad_interrupt>
   c:	0c 94 46 00 	jmp	0x8c	; 0x8c <__bad_interrupt>
  10:	0c 94 46 00 	jmp	0x8c	; 0x8c <__bad_interrupt>
  14:	0c 94 46 00 	jmp	0x8c	; 0x8c <__bad_interrupt>
  18:	0c 94 46 00 	jmp	0x8c	; 0x8c <__bad_interrupt>
  1c:	0c 94 46 00 	jmp	0x8c	; 0x8c <__bad_interrupt>
  20:	0c 94 46 00 	jmp	0x8c	; 0x8c <__bad_interrupt>
  24:	0c 94 46 00 	jmp	0x8c	; 0x8c <__bad_interrupt>
  28:	0c 94 46 00 	jmp	0x8c	; 0x8c <__bad_interrupt>
  2c:	0c 94 6f 00 	jmp	0xde	; 0xde <__vector_11>
  30:	0c 94 46 00 	jmp	0x8c	; 0x8c <__bad_interrupt>
  34:	0c 94 46 00 	jmp	0x8c	; 0x8c <__bad_interrupt>
  38:	0c 94 46 00 	jmp	0x8c	; 0x8c <__bad_interrupt>
  3c:	0c 94 46 00 	jmp	0x8c	; 0x8c <__bad_interrupt>
  40:	0c 94 46 00 	jmp	0x8c	; 0x8c <__bad_interrupt>
  44:	0c 94 46 00 	jmp	0x8c	; 0x8c <__bad_interrupt>
  48:	0c 94 46 00 	jmp	0x8c	; 0x8c <__bad_interrupt>
  4c:	0c 94 46 00 	jmp	0x8c	; 0x8c <__bad_interrupt>
  50:	0c 94 46 00 	jmp	0x8c	; 0x8c <__bad_interrupt>
  54:	0c 94 46 00 	jmp	0x8c	; 0x8c <__bad_interrupt>
  58:	0c 94 46 00 	jmp	0x8c	; 0x8c <__bad_interrupt>
  5c:	0c 94 46 00 	jmp	0x8c	; 0x8c <__bad_interrupt>
  60:	0c 94 46 00 	jmp	0x8c	; 0x8c <__bad_interrupt>
  64:	0c 94 46 00 	jmp	0x8c	; 0x8c <__bad_interrupt>

00000068 <__ctors_end>:
  68:	11 24       	eor	r1, r1
  6a:	1f be       	out	0x3f, r1	; 63
  6c:	cf ef       	ldi	r28, 0xFF	; 255
  6e:	d4 e0       	ldi	r29, 0x04	; 4
  70:	de bf       	out	0x3e, r29	; 62
  72:	cd bf       	out	0x3d, r28	; 61

00000074 <__do_clear_bss>:
  74:	11 e0       	ldi	r17, 0x01	; 1
  76:	a0 e0       	ldi	r26, 0x00	; 0
  78:	b1 e0       	ldi	r27, 0x01	; 1
  7a:	01 c0       	rjmp	.+2      	; 0x7e <.do_clear_bss_start>

0000007c <.do_clear_bss_loop>:
  7c:	1d 92       	st	X+, r1

0000007e <.do_clear_bss_start>:
  7e:	a1 30       	cpi	r26, 0x01	; 1
  80:	b1 07       	cpc	r27, r17
  82:	e1 f7       	brne	.-8      	; 0x7c <.do_clear_bss_loop>
  84:	0e 94 69 00 	call	0xd2	; 0xd2 <main>
  88:	0c 94 8b 00 	jmp	0x116	; 0x116 <_exit>

0000008c <__bad_interrupt>:
  8c:	0c 94 00 00 	jmp	0	; 0x0 <__vectors>

00000090 <SPI_init>:
#define SCK  PB5
uint8_t counter = 0;
 
void SPI_init()	//SPI initialization
{
DDRB |=(1<<MOSI) | (1<<SS) | (1<<SCK);	// set MOSI, SS and SCK as output pins
  90:	84 b1       	in	r24, 0x04	; 4
  92:	8c 62       	ori	r24, 0x2C	; 44
  94:	84 b9       	out	0x04, r24	; 4
SPCR |=(1<<MSTR);	//enable MSTR
  96:	8c b5       	in	r24, 0x2c	; 44
  98:	80 61       	ori	r24, 0x10	; 16
  9a:	8c bd       	out	0x2c, r24	; 44
SPCR |=(1<<SPR0) | (1<<SPR1); //freq /128
  9c:	8c b5       	in	r24, 0x2c	; 44
  9e:	83 60       	ori	r24, 0x03	; 3
  a0:	8c bd       	out	0x2c, r24	; 44
SPCR |=(1<<SPE);    //Enable SPI
  a2:	8c b5       	in	r24, 0x2c	; 44
  a4:	80 64       	ori	r24, 0x40	; 64
  a6:	8c bd       	out	0x2c, r24	; 44
}
  a8:	08 95       	ret

000000aa <TIMER1_init>:
/* Timer1 initialisation */

void TIMER1_init(void)
{
	/* Clear Timer on Compare Match */
	TCCR1B |= (1 << WGM12);
  aa:	e1 e8       	ldi	r30, 0x81	; 129
  ac:	f0 e0       	ldi	r31, 0x00	; 0
  ae:	80 81       	ld	r24, Z
  b0:	88 60       	ori	r24, 0x08	; 8
  b2:	80 83       	st	Z, r24
	
	/* Compare OCIE1A Event is activated */
	TIMSK1 |= (1<<OCIE1A);
  b4:	af e6       	ldi	r26, 0x6F	; 111
  b6:	b0 e0       	ldi	r27, 0x00	; 0
  b8:	8c 91       	ld	r24, X
  ba:	82 60       	ori	r24, 0x02	; 2
  bc:	8c 93       	st	X, r24
	
	/* Compare value 15625 */
	OCR1A = 1625 - 1;
  be:	88 e5       	ldi	r24, 0x58	; 88
  c0:	96 e0       	ldi	r25, 0x06	; 6
  c2:	90 93 89 00 	sts	0x0089, r25
  c6:	80 93 88 00 	sts	0x0088, r24
	
	/* Prescaler 1024 */
	TCCR1B |= (1<<CS10) | (1<<CS12);
  ca:	80 81       	ld	r24, Z
  cc:	85 60       	ori	r24, 0x05	; 5
  ce:	80 83       	st	Z, r24
	
	/* Global interrupts enabled in main function */
	
	//TIMER1_COMPA_VECT will be activated 16000000/1024/15625 = every second
}
  d0:	08 95       	ret

000000d2 <main>:
 
int main()
{
TIMER1_init();
  d2:	0e 94 55 00 	call	0xaa	; 0xaa <TIMER1_init>
SPI_init();	
  d6:	0e 94 48 00 	call	0x90	; 0x90 <SPI_init>
sei();
  da:	78 94       	sei
  dc:	ff cf       	rjmp	.-2      	; 0xdc <main+0xa>

000000de <__vector_11>:
}
 


ISR(TIMER1_COMPA_vect)
{
  de:	1f 92       	push	r1
  e0:	0f 92       	push	r0
  e2:	0f b6       	in	r0, 0x3f	; 63
  e4:	0f 92       	push	r0
  e6:	11 24       	eor	r1, r1
  e8:	8f 93       	push	r24
SPDR = counter;
  ea:	80 91 00 01 	lds	r24, 0x0100
  ee:	8e bd       	out	0x2e, r24	; 46
while(!(SPSR &(1<<SPIF)));	//wait until SPIF get high
  f0:	0d b4       	in	r0, 0x2d	; 45
  f2:	07 fe       	sbrs	r0, 7
  f4:	fd cf       	rjmp	.-6      	; 0xf0 <__vector_11+0x12>
if(counter < 254)counter++; else counter = 0;
  f6:	80 91 00 01 	lds	r24, 0x0100
  fa:	8e 3f       	cpi	r24, 0xFE	; 254
  fc:	20 f4       	brcc	.+8      	; 0x106 <__vector_11+0x28>
  fe:	8f 5f       	subi	r24, 0xFF	; 255
 100:	80 93 00 01 	sts	0x0100, r24
 104:	02 c0       	rjmp	.+4      	; 0x10a <__vector_11+0x2c>
 106:	10 92 00 01 	sts	0x0100, r1
 10a:	8f 91       	pop	r24
 10c:	0f 90       	pop	r0
 10e:	0f be       	out	0x3f, r0	; 63
 110:	0f 90       	pop	r0
 112:	1f 90       	pop	r1
 114:	18 95       	reti

00000116 <_exit>:
 116:	f8 94       	cli

00000118 <__stop_program>:
 118:	ff cf       	rjmp	.-2      	; 0x118 <__stop_program>
